{
  "_format": "hh-sol-artifact-1",
  "contractName": "EpicNFT",
  "sourceName": "contracts/EpicNFT.sol",
  "abi": [
    {
      "inputs": [],
      "stateMutability": "nonpayable",
      "type": "constructor"
    },
    {
      "anonymous": false,
      "inputs": [
        {
          "indexed": true,
          "internalType": "address",
          "name": "owner",
          "type": "address"
        },
        {
          "indexed": true,
          "internalType": "address",
          "name": "approved",
          "type": "address"
        },
        {
          "indexed": true,
          "internalType": "uint256",
          "name": "tokenId",
          "type": "uint256"
        }
      ],
      "name": "Approval",
      "type": "event"
    },
    {
      "anonymous": false,
      "inputs": [
        {
          "indexed": true,
          "internalType": "address",
          "name": "owner",
          "type": "address"
        },
        {
          "indexed": true,
          "internalType": "address",
          "name": "operator",
          "type": "address"
        },
        {
          "indexed": false,
          "internalType": "bool",
          "name": "approved",
          "type": "bool"
        }
      ],
      "name": "ApprovalForAll",
      "type": "event"
    },
    {
      "anonymous": false,
      "inputs": [
        {
          "indexed": true,
          "internalType": "address",
          "name": "from",
          "type": "address"
        },
        {
          "indexed": true,
          "internalType": "address",
          "name": "to",
          "type": "address"
        },
        {
          "indexed": true,
          "internalType": "uint256",
          "name": "tokenId",
          "type": "uint256"
        }
      ],
      "name": "Transfer",
      "type": "event"
    },
    {
      "anonymous": false,
      "inputs": [
        {
          "indexed": false,
          "internalType": "address",
          "name": "sender",
          "type": "address"
        },
        {
          "indexed": false,
          "internalType": "string",
          "name": "metadata",
          "type": "string"
        }
      ],
      "name": "newMint",
      "type": "event"
    },
    {
      "inputs": [
        {
          "internalType": "address",
          "name": "to",
          "type": "address"
        },
        {
          "internalType": "uint256",
          "name": "tokenId",
          "type": "uint256"
        }
      ],
      "name": "approve",
      "outputs": [],
      "stateMutability": "nonpayable",
      "type": "function"
    },
    {
      "inputs": [
        {
          "internalType": "address",
          "name": "owner",
          "type": "address"
        }
      ],
      "name": "balanceOf",
      "outputs": [
        {
          "internalType": "uint256",
          "name": "",
          "type": "uint256"
        }
      ],
      "stateMutability": "view",
      "type": "function"
    },
    {
      "inputs": [
        {
          "internalType": "uint256",
          "name": "tokenId",
          "type": "uint256"
        }
      ],
      "name": "getApproved",
      "outputs": [
        {
          "internalType": "address",
          "name": "",
          "type": "address"
        }
      ],
      "stateMutability": "view",
      "type": "function"
    },
    {
      "inputs": [
        {
          "internalType": "address",
          "name": "owner",
          "type": "address"
        },
        {
          "internalType": "address",
          "name": "operator",
          "type": "address"
        }
      ],
      "name": "isApprovedForAll",
      "outputs": [
        {
          "internalType": "bool",
          "name": "",
          "type": "bool"
        }
      ],
      "stateMutability": "view",
      "type": "function"
    },
    {
      "inputs": [],
      "name": "makeEpicNFT",
      "outputs": [],
      "stateMutability": "nonpayable",
      "type": "function"
    },
    {
      "inputs": [],
      "name": "name",
      "outputs": [
        {
          "internalType": "string",
          "name": "",
          "type": "string"
        }
      ],
      "stateMutability": "view",
      "type": "function"
    },
    {
      "inputs": [
        {
          "internalType": "uint256",
          "name": "tokenId",
          "type": "uint256"
        }
      ],
      "name": "ownerOf",
      "outputs": [
        {
          "internalType": "address",
          "name": "",
          "type": "address"
        }
      ],
      "stateMutability": "view",
      "type": "function"
    },
    {
      "inputs": [
        {
          "internalType": "uint256",
          "name": "tokenId",
          "type": "uint256"
        }
      ],
      "name": "pickRandomFirstWord",
      "outputs": [
        {
          "internalType": "string",
          "name": "",
          "type": "string"
        }
      ],
      "stateMutability": "view",
      "type": "function"
    },
    {
      "inputs": [
        {
          "internalType": "uint256",
          "name": "tokenId",
          "type": "uint256"
        }
      ],
      "name": "pickRandomSecondWord",
      "outputs": [
        {
          "internalType": "string",
          "name": "",
          "type": "string"
        }
      ],
      "stateMutability": "view",
      "type": "function"
    },
    {
      "inputs": [
        {
          "internalType": "uint256",
          "name": "tokenId",
          "type": "uint256"
        }
      ],
      "name": "pickRandomThirdWord",
      "outputs": [
        {
          "internalType": "string",
          "name": "",
          "type": "string"
        }
      ],
      "stateMutability": "view",
      "type": "function"
    },
    {
      "inputs": [
        {
          "internalType": "address",
          "name": "from",
          "type": "address"
        },
        {
          "internalType": "address",
          "name": "to",
          "type": "address"
        },
        {
          "internalType": "uint256",
          "name": "tokenId",
          "type": "uint256"
        }
      ],
      "name": "safeTransferFrom",
      "outputs": [],
      "stateMutability": "nonpayable",
      "type": "function"
    },
    {
      "inputs": [
        {
          "internalType": "address",
          "name": "from",
          "type": "address"
        },
        {
          "internalType": "address",
          "name": "to",
          "type": "address"
        },
        {
          "internalType": "uint256",
          "name": "tokenId",
          "type": "uint256"
        },
        {
          "internalType": "bytes",
          "name": "_data",
          "type": "bytes"
        }
      ],
      "name": "safeTransferFrom",
      "outputs": [],
      "stateMutability": "nonpayable",
      "type": "function"
    },
    {
      "inputs": [
        {
          "internalType": "address",
          "name": "operator",
          "type": "address"
        },
        {
          "internalType": "bool",
          "name": "approved",
          "type": "bool"
        }
      ],
      "name": "setApprovalForAll",
      "outputs": [],
      "stateMutability": "nonpayable",
      "type": "function"
    },
    {
      "inputs": [
        {
          "internalType": "bytes4",
          "name": "interfaceId",
          "type": "bytes4"
        }
      ],
      "name": "supportsInterface",
      "outputs": [
        {
          "internalType": "bool",
          "name": "",
          "type": "bool"
        }
      ],
      "stateMutability": "view",
      "type": "function"
    },
    {
      "inputs": [],
      "name": "symbol",
      "outputs": [
        {
          "internalType": "string",
          "name": "",
          "type": "string"
        }
      ],
      "stateMutability": "view",
      "type": "function"
    },
    {
      "inputs": [
        {
          "internalType": "uint256",
          "name": "tokenId",
          "type": "uint256"
        }
      ],
      "name": "tokenURI",
      "outputs": [
        {
          "internalType": "string",
          "name": "",
          "type": "string"
        }
      ],
      "stateMutability": "view",
      "type": "function"
    },
    {
      "inputs": [
        {
          "internalType": "address",
          "name": "from",
          "type": "address"
        },
        {
          "internalType": "address",
          "name": "to",
          "type": "address"
        },
        {
          "internalType": "uint256",
          "name": "tokenId",
          "type": "uint256"
        }
      ],
      "name": "transferFrom",
      "outputs": [],
      "stateMutability": "nonpayable",
      "type": "function"
    }
  ],
  "bytecode": "0x60806040526040518060c001604052806040518060400160405280600781526020017f417765736f6d650000000000000000000000000000000000000000000000000081525081526020016040518060400160405280600a81526020017f54657272796679696e670000000000000000000000000000000000000000000081525081526020016040518060400160405280600481526020017f457069630000000000000000000000000000000000000000000000000000000081525081526020016040518060400160405280600981526020017f48696c6172696f7573000000000000000000000000000000000000000000000081525081526020016040518060400160405280600481526020017f57696c640000000000000000000000000000000000000000000000000000000081525081526020016040518060400160405280600781526020017f416d617a696e67000000000000000000000000000000000000000000000000008152508152506008906006620001819291906200067e565b506040518060c001604052806040518060400160405280600981526020017f48616d627572676572000000000000000000000000000000000000000000000081525081526020016040518060400160405280600c81526020017f436865657365627572676572000000000000000000000000000000000000000081525081526020016040518060400160405280600581526020017f506173746100000000000000000000000000000000000000000000000000000081525081526020016040518060400160405280600881526020017f4d616361726f6e6900000000000000000000000000000000000000000000000081525081526020016040518060400160405280600581526020017f50697a7a6100000000000000000000000000000000000000000000000000000081525081526020016040518060400160405280600581526020017f43686970730000000000000000000000000000000000000000000000000000008152508152506009906006620002ff9291906200067e565b506040518060c001604052806040518060400160405280600481526020017f476f61740000000000000000000000000000000000000000000000000000000081525081526020016040518060400160405280600381526020017f436174000000000000000000000000000000000000000000000000000000000081525081526020016040518060400160405280600781526020017f50656e6775696e0000000000000000000000000000000000000000000000000081525081526020016040518060400160405280600881526020017f546f72746f69736500000000000000000000000000000000000000000000000081525081526020016040518060400160405280600781526020017f476972616666650000000000000000000000000000000000000000000000000081525081526020016040518060400160405280600881526020017f456c657068616e74000000000000000000000000000000000000000000000000815250815250600a9060066200047d9291906200067e565b5060405180610160016040528061012f8152602001620042f561012f9139600b9080519060200190620004b2929190620006e5565b50348015620004c057600080fd5b506040518060400160405280600981526020017f5371756172654e465400000000000000000000000000000000000000000000008152506040518060400160405280600381526020017f5351520000000000000000000000000000000000000000000000000000000000815250816000908051906020019062000545929190620006e5565b5080600190805190602001906200055e929190620006e5565b505050620005ac6040518060400160405280601e81526020017f54686973206973206d79204e465420636f6e74726163742e20576f6168210000815250620005b260201b620012291760201c565b62000930565b6200065281604051602401620005c9919062000844565b6040516020818303038152906040527f41304fac000000000000000000000000000000000000000000000000000000007bffffffffffffffffffffffffffffffffffffffffffffffffffffffff19166020820180517bffffffffffffffffffffffffffffffffffffffffffffffffffffffff83818316178352505050506200065560201b60201c565b50565b60008151905060006a636f6e736f6c652e6c6f679050602083016000808483855afa5050505050565b828054828255906000526020600020908101928215620006d2579160200282015b82811115620006d1578251829080519060200190620006c0929190620006e5565b50916020019190600101906200069f565b5b509050620006e1919062000776565b5090565b828054620006f390620008ba565b90600052602060002090601f01602090048101928262000717576000855562000763565b82601f106200073257805160ff191683800117855562000763565b8280016001018555821562000763579182015b828111156200076257825182559160200191906001019062000745565b5b5090506200077291906200079e565b5090565b5b808211156200079a5760008181620007909190620007bd565b5060010162000777565b5090565b5b80821115620007b95760008160009055506001016200079f565b5090565b508054620007cb90620008ba565b6000825580601f10620007df575062000800565b601f016020900490600052602060002090810190620007ff91906200079e565b5b50565b6000620008108262000868565b6200081c818562000873565b93506200082e81856020860162000884565b62000839816200091f565b840191505092915050565b6000602082019050818103600083015262000860818462000803565b905092915050565b600081519050919050565b600082825260208201905092915050565b60005b83811015620008a457808201518184015260208101905062000887565b83811115620008b4576000848401525b50505050565b60006002820490506001821680620008d357607f821691505b60208210811415620008ea57620008e9620008f0565b5b50919050565b7f4e487b7100000000000000000000000000000000000000000000000000000000600052602260045260246000fd5b6000601f19601f8301169050919050565b6139b580620009406000396000f3fe608060405234801561001057600080fd5b506004361061010b5760003560e01c80636352211e116100a2578063b187301f11610071578063b187301f146102b6578063b88d4fde146102e6578063c575757a14610302578063c87b56dd14610332578063e985e9c5146103625761010b565b80636352211e1461021c57806370a082311461024c57806395d89b411461027c578063a22cb4651461029a5761010b565b806323b872dd116100de57806323b872dd146101aa5780632de38d68146101c657806342842e0e146101f657806362b41f49146102125761010b565b806301ffc9a71461011057806306fdde0314610140578063081812fc1461015e578063095ea7b31461018e575b600080fd5b61012a600480360381019061012591906124bc565b610392565b6040516101379190612bcd565b60405180910390f35b610148610474565b6040516101559190612be8565b60405180910390f35b6101786004803603810190610173919061250e565b610506565b6040516101859190612b36565b60405180910390f35b6101a860048036038101906101a39190612480565b61058b565b005b6101c460048036038101906101bf919061237a565b6106a3565b005b6101e060048036038101906101db919061250e565b610703565b6040516101ed9190612be8565b60405180910390f35b610210600480360381019061020b919061237a565b610821565b005b61021a610841565b005b6102366004803603810190610231919061250e565b610a28565b6040516102439190612b36565b60405180910390f35b61026660048036038101906102619190612315565b610ada565b6040516102739190612e48565b60405180910390f35b610284610b92565b6040516102919190612be8565b60405180910390f35b6102b460048036038101906102af9190612444565b610c24565b005b6102d060048036038101906102cb919061250e565b610da5565b6040516102dd9190612be8565b60405180910390f35b61030060048036038101906102fb91906123c9565b610ec3565b005b61031c6004803603810190610317919061250e565b610f25565b6040516103299190612be8565b60405180910390f35b61034c6004803603810190610347919061250e565b611043565b6040516103599190612be8565b60405180910390f35b61037c6004803603810190610377919061233e565b611195565b6040516103899190612bcd565b60405180910390f35b60007f80ac58cd000000000000000000000000000000000000000000000000000000007bffffffffffffffffffffffffffffffffffffffffffffffffffffffff1916827bffffffffffffffffffffffffffffffffffffffffffffffffffffffff1916148061045d57507f5b5e139f000000000000000000000000000000000000000000000000000000007bffffffffffffffffffffffffffffffffffffffffffffffffffffffff1916827bffffffffffffffffffffffffffffffffffffffffffffffffffffffff1916145b8061046d575061046c826112c2565b5b9050919050565b606060008054610483906130dc565b80601f01602080910402602001604051908101604052809291908181526020018280546104af906130dc565b80156104fc5780601f106104d1576101008083540402835291602001916104fc565b820191906000526020600020905b8154815290600101906020018083116104df57829003601f168201915b5050505050905090565b60006105118261132c565b610550576040517f08c379a000000000000000000000000000000000000000000000000000000000815260040161054790612da8565b60405180910390fd5b6004600083815260200190815260200160002060009054906101000a900473ffffffffffffffffffffffffffffffffffffffff169050919050565b600061059682610a28565b90508073ffffffffffffffffffffffffffffffffffffffff168373ffffffffffffffffffffffffffffffffffffffff161415610607576040517f08c379a00000000000000000000000000000000000000000000000000000000081526004016105fe90612e08565b60405180910390fd5b8073ffffffffffffffffffffffffffffffffffffffff16610626611398565b73ffffffffffffffffffffffffffffffffffffffff16148061065557506106548161064f611398565b611195565b5b610694576040517f08c379a000000000000000000000000000000000000000000000000000000000815260040161068b90612ce8565b60405180910390fd5b61069e83836113a0565b505050565b6106b46106ae611398565b82611459565b6106f3576040517f08c379a00000000000000000000000000000000000000000000000000000000081526004016106ea90612e28565b60405180910390fd5b6106fe838383611537565b505050565b6060600061073761071384611793565b6040516020016107239190612af2565b604051602081830303815290604052611940565b90506008805490508161074a9190613188565b905060088181548110610786577f4e487b7100000000000000000000000000000000000000000000000000000000600052603260045260246000fd5b90600052602060002001805461079b906130dc565b80601f01602080910402602001604051908101604052809291908181526020018280546107c7906130dc565b80156108145780601f106107e957610100808354040283529160200191610814565b820191906000526020600020905b8154815290600101906020018083116107f757829003601f168201915b5050505050915050919050565b61083c83838360405180602001604052806000815250610ec3565b505050565b600061084d6007611973565b9050600061085a82610703565b9050600061086783610da5565b9050600061087484610f25565b9050600083838360405160200161088d93929190612a09565b60405160208183030381529060405290506000600b826040516020016108b4929190612a3a565b604051602081830303815290604052905060006108f9836108d484611981565b6040516020016108e5929190612aad565b604051602081830303815290604052611981565b905060008160405160200161090e9190612b14565b604051602081830303815290604052905061095d6040518060400160405280601581526020017f0a2d2d2d2d2d2d2d2d2d2d2d2d2d2d2d2d2d2d2d2d0000000000000000000000815250611229565b61096681611229565b6109a46040518060400160405280601581526020017f2d2d2d2d2d2d2d2d2d2d2d2d2d2d2d2d2d2d2d2d0a0000000000000000000000815250611229565b6109ae3389611b3f565b6109b88882611b5d565b6109db60405180606001604052806025815260200161391b602591398933611bd1565b7fbfbc01ccfd18389ea95017c1c0b3075c0cde4711af5241dbb6e166bf8361cdbb3383604051610a0c929190612b9d565b60405180910390a1610a1e6007611c70565b5050505050505050565b6000806002600084815260200190815260200160002060009054906101000a900473ffffffffffffffffffffffffffffffffffffffff169050600073ffffffffffffffffffffffffffffffffffffffff168173ffffffffffffffffffffffffffffffffffffffff161415610ad1576040517f08c379a0000000000000000000000000000000000000000000000000000000008152600401610ac890612d28565b60405180910390fd5b80915050919050565b60008073ffffffffffffffffffffffffffffffffffffffff168273ffffffffffffffffffffffffffffffffffffffff161415610b4b576040517f08c379a0000000000000000000000000000000000000000000000000000000008152600401610b4290612d08565b60405180910390fd5b600360008373ffffffffffffffffffffffffffffffffffffffff1673ffffffffffffffffffffffffffffffffffffffff168152602001908152602001600020549050919050565b606060018054610ba1906130dc565b80601f0160208091040260200160405190810160405280929190818152602001828054610bcd906130dc565b8015610c1a5780601f10610bef57610100808354040283529160200191610c1a565b820191906000526020600020905b815481529060010190602001808311610bfd57829003601f168201915b5050505050905090565b610c2c611398565b73ffffffffffffffffffffffffffffffffffffffff168273ffffffffffffffffffffffffffffffffffffffff161415610c9a576040517f08c379a0000000000000000000000000000000000000000000000000000000008152600401610c9190612ca8565b60405180910390fd5b8060056000610ca7611398565b73ffffffffffffffffffffffffffffffffffffffff1673ffffffffffffffffffffffffffffffffffffffff16815260200190815260200160002060008473ffffffffffffffffffffffffffffffffffffffff1673ffffffffffffffffffffffffffffffffffffffff16815260200190815260200160002060006101000a81548160ff0219169083151502179055508173ffffffffffffffffffffffffffffffffffffffff16610d54611398565b73ffffffffffffffffffffffffffffffffffffffff167f17307eab39ab6107e8899845ad3d59bd9653f200f220920489ca2b5937696c3183604051610d999190612bcd565b60405180910390a35050565b60606000610dd9610db584611793565b604051602001610dc59190612a8b565b604051602081830303815290604052611940565b905060098054905081610dec9190613188565b905060098181548110610e28577f4e487b7100000000000000000000000000000000000000000000000000000000600052603260045260246000fd5b906000526020600020018054610e3d906130dc565b80601f0160208091040260200160405190810160405280929190818152602001828054610e69906130dc565b8015610eb65780601f10610e8b57610100808354040283529160200191610eb6565b820191906000526020600020905b815481529060010190602001808311610e9957829003601f168201915b5050505050915050919050565b610ed4610ece611398565b83611459565b610f13576040517f08c379a0000000000000000000000000000000000000000000000000000000008152600401610f0a90612e28565b60405180910390fd5b610f1f84848484611c86565b50505050565b60606000610f59610f3584611793565b604051602001610f459190612a69565b604051602081830303815290604052611940565b9050600a8054905081610f6c9190613188565b9050600a8181548110610fa8577f4e487b7100000000000000000000000000000000000000000000000000000000600052603260045260246000fd5b906000526020600020018054610fbd906130dc565b80601f0160208091040260200160405190810160405280929190818152602001828054610fe9906130dc565b80156110365780601f1061100b57610100808354040283529160200191611036565b820191906000526020600020905b81548152906001019060200180831161101957829003601f168201915b5050505050915050919050565b606061104e8261132c565b61108d576040517f08c379a000000000000000000000000000000000000000000000000000000000815260040161108490612d88565b60405180910390fd5b60006006600084815260200190815260200160002080546110ad906130dc565b80601f01602080910402602001604051908101604052809291908181526020018280546110d9906130dc565b80156111265780601f106110fb57610100808354040283529160200191611126565b820191906000526020600020905b81548152906001019060200180831161110957829003601f168201915b505050505090506000611137611ce2565b905060008151141561114d578192505050611190565b60008251111561118257808260405160200161116a9291906129e5565b60405160208183030381529060405292505050611190565b61118b84611cf9565b925050505b919050565b6000600560008473ffffffffffffffffffffffffffffffffffffffff1673ffffffffffffffffffffffffffffffffffffffff16815260200190815260200160002060008373ffffffffffffffffffffffffffffffffffffffff1673ffffffffffffffffffffffffffffffffffffffff16815260200190815260200160002060009054906101000a900460ff16905092915050565b6112bf8160405160240161123d9190612be8565b6040516020818303038152906040527f41304fac000000000000000000000000000000000000000000000000000000007bffffffffffffffffffffffffffffffffffffffffffffffffffffffff19166020820180517bffffffffffffffffffffffffffffffffffffffffffffffffffffffff8381831617835250505050611da0565b50565b60007f01ffc9a7000000000000000000000000000000000000000000000000000000007bffffffffffffffffffffffffffffffffffffffffffffffffffffffff1916827bffffffffffffffffffffffffffffffffffffffffffffffffffffffff1916149050919050565b60008073ffffffffffffffffffffffffffffffffffffffff166002600084815260200190815260200160002060009054906101000a900473ffffffffffffffffffffffffffffffffffffffff1673ffffffffffffffffffffffffffffffffffffffff1614159050919050565b600033905090565b816004600083815260200190815260200160002060006101000a81548173ffffffffffffffffffffffffffffffffffffffff021916908373ffffffffffffffffffffffffffffffffffffffff160217905550808273ffffffffffffffffffffffffffffffffffffffff1661141383610a28565b73ffffffffffffffffffffffffffffffffffffffff167f8c5be1e5ebec7d5bd14f71427d1e84f3dd0314c0f7b2291e5b200ac8c7c3b92560405160405180910390a45050565b60006114648261132c565b6114a3576040517f08c379a000000000000000000000000000000000000000000000000000000000815260040161149a90612cc8565b60405180910390fd5b60006114ae83610a28565b90508073ffffffffffffffffffffffffffffffffffffffff168473ffffffffffffffffffffffffffffffffffffffff16148061151d57508373ffffffffffffffffffffffffffffffffffffffff1661150584610506565b73ffffffffffffffffffffffffffffffffffffffff16145b8061152e575061152d8185611195565b5b91505092915050565b8273ffffffffffffffffffffffffffffffffffffffff1661155782610a28565b73ffffffffffffffffffffffffffffffffffffffff16146115ad576040517f08c379a00000000000000000000000000000000000000000000000000000000081526004016115a490612dc8565b60405180910390fd5b600073ffffffffffffffffffffffffffffffffffffffff168273ffffffffffffffffffffffffffffffffffffffff16141561161d576040517f08c379a000000000000000000000000000000000000000000000000000000000815260040161161490612c88565b60405180910390fd5b611628838383611dc9565b6116336000826113a0565b6001600360008573ffffffffffffffffffffffffffffffffffffffff1673ffffffffffffffffffffffffffffffffffffffff16815260200190815260200160002060008282546116839190612ff2565b925050819055506001600360008473ffffffffffffffffffffffffffffffffffffffff1673ffffffffffffffffffffffffffffffffffffffff16815260200190815260200160002060008282546116da9190612f11565b92505081905550816002600083815260200190815260200160002060006101000a81548173ffffffffffffffffffffffffffffffffffffffff021916908373ffffffffffffffffffffffffffffffffffffffff160217905550808273ffffffffffffffffffffffffffffffffffffffff168473ffffffffffffffffffffffffffffffffffffffff167fddf252ad1be2c89b69c2b068fc378daa952ba7f163c4a11628f55a4df523b3ef60405160405180910390a4505050565b606060008214156117db576040518060400160405280600181526020017f3000000000000000000000000000000000000000000000000000000000000000815250905061193b565b600082905060005b6000821461180d5780806117f69061313f565b915050600a826118069190612f67565b91506117e3565b60008167ffffffffffffffff81111561184f577f4e487b7100000000000000000000000000000000000000000000000000000000600052604160045260246000fd5b6040519080825280601f01601f1916602001820160405280156118815781602001600182028036833780820191505090505b5090505b600085146119345760018261189a9190612ff2565b9150600a856118a99190613188565b60306118b59190612f11565b60f81b8183815181106118f1577f4e487b7100000000000000000000000000000000000000000000000000000000600052603260045260246000fd5b60200101907effffffffffffffffffffffffffffffffffffffffffffffffffffffffffffff1916908160001a905350600a8561192d9190612f67565b9450611885565b8093505050505b919050565b60008160405160200161195391906129ce565b6040516020818303038152906040528051906020012060001c9050919050565b600081600001549050919050565b606060008251905060008114156119aa5760405180602001604052806000815250915050611b3a565b600060036002836119bb9190612f11565b6119c59190612f67565b60046119d19190612f98565b905060006020826119e29190612f11565b67ffffffffffffffff811115611a21577f4e487b7100000000000000000000000000000000000000000000000000000000600052604160045260246000fd5b6040519080825280601f01601f191660200182016040528015611a535781602001600182028036833780820191505090505b5090506000604051806060016040528060408152602001613940604091399050600181016020830160005b86811015611af75760038101905062ffffff818a015116603f8160121c168401518060081b905060ff603f83600c1c1686015116810190508060081b905060ff603f8360061c1686015116810190508060081b905060ff603f831686015116810190508060e01b90508084526004840193505050611a7e565b506003860660018114611b115760028114611b2157611b2c565b613d3d60f01b6002830352611b2c565b603d60f81b60018303525b508484525050819450505050505b919050565b611b59828260405180602001604052806000815250611dce565b5050565b611b668261132c565b611ba5576040517f08c379a0000000000000000000000000000000000000000000000000000000008152600401611b9c90612d48565b60405180910390fd5b80600660008481526020019081526020016000209080519060200190611bcc9291906121a1565b505050565b611c6b838383604051602401611be993929190612c0a565b6040516020818303038152906040527fe3849f79000000000000000000000000000000000000000000000000000000007bffffffffffffffffffffffffffffffffffffffffffffffffffffffff19166020820180517bffffffffffffffffffffffffffffffffffffffffffffffffffffffff8381831617835250505050611da0565b505050565b6001816000016000828254019250508190555050565b611c91848484611537565b611c9d84848484611e29565b611cdc576040517f08c379a0000000000000000000000000000000000000000000000000000000008152600401611cd390612c48565b60405180910390fd5b50505050565b606060405180602001604052806000815250905090565b6060611d048261132c565b611d43576040517f08c379a0000000000000000000000000000000000000000000000000000000008152600401611d3a90612de8565b60405180910390fd5b6000611d4d611ce2565b90506000815111611d6d5760405180602001604052806000815250611d98565b80611d7784611793565b604051602001611d889291906129e5565b6040516020818303038152906040525b915050919050565b60008151905060006a636f6e736f6c652e6c6f679050602083016000808483855afa5050505050565b505050565b611dd88383611fc0565b611de56000848484611e29565b611e24576040517f08c379a0000000000000000000000000000000000000000000000000000000008152600401611e1b90612c48565b60405180910390fd5b505050565b6000611e4a8473ffffffffffffffffffffffffffffffffffffffff1661218e565b15611fb3578373ffffffffffffffffffffffffffffffffffffffff1663150b7a02611e73611398565b8786866040518563ffffffff1660e01b8152600401611e959493929190612b51565b602060405180830381600087803b158015611eaf57600080fd5b505af1925050508015611ee057506040513d601f19601f82011682018060405250810190611edd91906124e5565b60015b611f63573d8060008114611f10576040519150601f19603f3d011682016040523d82523d6000602084013e611f15565b606091505b50600081511415611f5b576040517f08c379a0000000000000000000000000000000000000000000000000000000008152600401611f5290612c48565b60405180910390fd5b805181602001fd5b63150b7a0260e01b7bffffffffffffffffffffffffffffffffffffffffffffffffffffffff1916817bffffffffffffffffffffffffffffffffffffffffffffffffffffffff191614915050611fb8565b600190505b949350505050565b600073ffffffffffffffffffffffffffffffffffffffff168273ffffffffffffffffffffffffffffffffffffffff161415612030576040517f08c379a000000000000000000000000000000000000000000000000000000000815260040161202790612d68565b60405180910390fd5b6120398161132c565b15612079576040517f08c379a000000000000000000000000000000000000000000000000000000000815260040161207090612c68565b60405180910390fd5b61208560008383611dc9565b6001600360008473ffffffffffffffffffffffffffffffffffffffff1673ffffffffffffffffffffffffffffffffffffffff16815260200190815260200160002060008282546120d59190612f11565b92505081905550816002600083815260200190815260200160002060006101000a81548173ffffffffffffffffffffffffffffffffffffffff021916908373ffffffffffffffffffffffffffffffffffffffff160217905550808273ffffffffffffffffffffffffffffffffffffffff16600073ffffffffffffffffffffffffffffffffffffffff167fddf252ad1be2c89b69c2b068fc378daa952ba7f163c4a11628f55a4df523b3ef60405160405180910390a45050565b600080823b905060008111915050919050565b8280546121ad906130dc565b90600052602060002090601f0160209004810192826121cf5760008555612216565b82601f106121e857805160ff1916838001178555612216565b82800160010185558215612216579182015b828111156122155782518255916020019190600101906121fa565b5b5090506122239190612227565b5090565b5b80821115612240576000816000905550600101612228565b5090565b600061225761225284612e88565b612e63565b90508281526020810184848401111561226f57600080fd5b61227a84828561309a565b509392505050565b600081359050612291816138be565b92915050565b6000813590506122a6816138d5565b92915050565b6000813590506122bb816138ec565b92915050565b6000815190506122d0816138ec565b92915050565b600082601f8301126122e757600080fd5b81356122f7848260208601612244565b91505092915050565b60008135905061230f81613903565b92915050565b60006020828403121561232757600080fd5b600061233584828501612282565b91505092915050565b6000806040838503121561235157600080fd5b600061235f85828601612282565b925050602061237085828601612282565b9150509250929050565b60008060006060848603121561238f57600080fd5b600061239d86828701612282565b93505060206123ae86828701612282565b92505060406123bf86828701612300565b9150509250925092565b600080600080608085870312156123df57600080fd5b60006123ed87828801612282565b94505060206123fe87828801612282565b935050604061240f87828801612300565b925050606085013567ffffffffffffffff81111561242c57600080fd5b612438878288016122d6565b91505092959194509250565b6000806040838503121561245757600080fd5b600061246585828601612282565b925050602061247685828601612297565b9150509250929050565b6000806040838503121561249357600080fd5b60006124a185828601612282565b92505060206124b285828601612300565b9150509250929050565b6000602082840312156124ce57600080fd5b60006124dc848285016122ac565b91505092915050565b6000602082840312156124f757600080fd5b6000612505848285016122c1565b91505092915050565b60006020828403121561252057600080fd5b600061252e84828501612300565b91505092915050565b61254081613026565b82525050565b61254f81613038565b82525050565b600061256082612ece565b61256a8185612ee4565b935061257a8185602086016130a9565b61258381613275565b840191505092915050565b600061259982612ed9565b6125a38185612ef5565b93506125b38185602086016130a9565b6125bc81613275565b840191505092915050565b60006125d282612ed9565b6125dc8185612f06565b93506125ec8185602086016130a9565b80840191505092915050565b60008154612605816130dc565b61260f8186612f06565b9450600182166000811461262a576001811461263b5761266e565b60ff1983168652818601935061266e565b61264485612eb9565b60005b8381101561266657815481890152600182019150602081019050612647565b838801955050505b50505092915050565b6000612684603283612ef5565b915061268f82613286565b604082019050919050565b60006126a7601c83612ef5565b91506126b2826132d5565b602082019050919050565b60006126ca600a83612f06565b91506126d5826132fe565b600a82019050919050565b60006126ed602483612ef5565b91506126f882613327565b604082019050919050565b6000612710601983612ef5565b915061271b82613376565b602082019050919050565b6000612733606383612f06565b915061273e8261339f565b606382019050919050565b6000612756600b83612f06565b91506127618261343a565b600b82019050919050565b6000612779602c83612ef5565b915061278482613463565b604082019050919050565b600061279c600d83612f06565b91506127a7826134b2565b600d82019050919050565b60006127bf603883612ef5565b91506127ca826134db565b604082019050919050565b60006127e2602a83612ef5565b91506127ed8261352a565b604082019050919050565b6000612805602983612ef5565b915061281082613579565b604082019050919050565b6000612828602e83612ef5565b9150612833826135c8565b604082019050919050565b600061284b600283612f06565b915061285682613617565b600282019050919050565b600061286e602083612ef5565b915061287982613640565b602082019050919050565b6000612891603183612ef5565b915061289c82613669565b604082019050919050565b60006128b4602c83612ef5565b91506128bf826136b8565b604082019050919050565b60006128d7602983612ef5565b91506128e282613707565b604082019050919050565b60006128fa602f83612ef5565b915061290582613756565b604082019050919050565b600061291d600a83612f06565b9150612928826137a5565b600a82019050919050565b6000612940602183612ef5565b915061294b826137ce565b604082019050919050565b6000612963600a83612f06565b915061296e8261381d565b600a82019050919050565b6000612986601d83612f06565b915061299182613846565b601d82019050919050565b60006129a9603183612ef5565b91506129b48261386f565b604082019050919050565b6129c881613090565b82525050565b60006129da82846125c7565b915081905092915050565b60006129f182856125c7565b91506129fd82846125c7565b91508190509392505050565b6000612a1582866125c7565b9150612a2182856125c7565b9150612a2d82846125c7565b9150819050949350505050565b6000612a4682856125f8565b9150612a5282846125c7565b9150612a5d8261278f565b91508190509392505050565b6000612a74826126bd565b9150612a8082846125c7565b915081905092915050565b6000612a9682612749565b9150612aa282846125c7565b915081905092915050565b6000612ab882612910565b9150612ac482856125c7565b9150612acf82612726565b9150612adb82846125c7565b9150612ae68261283e565b91508190509392505050565b6000612afd82612956565b9150612b0982846125c7565b915081905092915050565b6000612b1f82612979565b9150612b2b82846125c7565b915081905092915050565b6000602082019050612b4b6000830184612537565b92915050565b6000608082019050612b666000830187612537565b612b736020830186612537565b612b8060408301856129bf565b8181036060830152612b928184612555565b905095945050505050565b6000604082019050612bb26000830185612537565b8181036020830152612bc4818461258e565b90509392505050565b6000602082019050612be26000830184612546565b92915050565b60006020820190508181036000830152612c02818461258e565b905092915050565b60006060820190508181036000830152612c24818661258e565b9050612c3360208301856129bf565b612c406040830184612537565b949350505050565b60006020820190508181036000830152612c6181612677565b9050919050565b60006020820190508181036000830152612c818161269a565b9050919050565b60006020820190508181036000830152612ca1816126e0565b9050919050565b60006020820190508181036000830152612cc181612703565b9050919050565b60006020820190508181036000830152612ce18161276c565b9050919050565b60006020820190508181036000830152612d01816127b2565b9050919050565b60006020820190508181036000830152612d21816127d5565b9050919050565b60006020820190508181036000830152612d41816127f8565b9050919050565b60006020820190508181036000830152612d618161281b565b9050919050565b60006020820190508181036000830152612d8181612861565b9050919050565b60006020820190508181036000830152612da181612884565b9050919050565b60006020820190508181036000830152612dc1816128a7565b9050919050565b60006020820190508181036000830152612de1816128ca565b9050919050565b60006020820190508181036000830152612e01816128ed565b9050919050565b60006020820190508181036000830152612e2181612933565b9050919050565b60006020820190508181036000830152612e418161299c565b9050919050565b6000602082019050612e5d60008301846129bf565b92915050565b6000612e6d612e7e565b9050612e79828261310e565b919050565b6000604051905090565b600067ffffffffffffffff821115612ea357612ea2613246565b5b612eac82613275565b9050602081019050919050565b60008190508160005260206000209050919050565b600081519050919050565b600081519050919050565b600082825260208201905092915050565b600082825260208201905092915050565b600081905092915050565b6000612f1c82613090565b9150612f2783613090565b9250827fffffffffffffffffffffffffffffffffffffffffffffffffffffffffffffffff03821115612f5c57612f5b6131b9565b5b828201905092915050565b6000612f7282613090565b9150612f7d83613090565b925082612f8d57612f8c6131e8565b5b828204905092915050565b6000612fa382613090565b9150612fae83613090565b9250817fffffffffffffffffffffffffffffffffffffffffffffffffffffffffffffffff0483118215151615612fe757612fe66131b9565b5b828202905092915050565b6000612ffd82613090565b915061300883613090565b92508282101561301b5761301a6131b9565b5b828203905092915050565b600061303182613070565b9050919050565b60008115159050919050565b60007fffffffff0000000000000000000000000000000000000000000000000000000082169050919050565b600073ffffffffffffffffffffffffffffffffffffffff82169050919050565b6000819050919050565b82818337600083830152505050565b60005b838110156130c75780820151818401526020810190506130ac565b838111156130d6576000848401525b50505050565b600060028204905060018216806130f457607f821691505b6020821081141561310857613107613217565b5b50919050565b61311782613275565b810181811067ffffffffffffffff8211171561313657613135613246565b5b80604052505050565b600061314a82613090565b91507fffffffffffffffffffffffffffffffffffffffffffffffffffffffffffffffff82141561317d5761317c6131b9565b5b600182019050919050565b600061319382613090565b915061319e83613090565b9250826131ae576131ad6131e8565b5b828206905092915050565b7f4e487b7100000000000000000000000000000000000000000000000000000000600052601160045260246000fd5b7f4e487b7100000000000000000000000000000000000000000000000000000000600052601260045260246000fd5b7f4e487b7100000000000000000000000000000000000000000000000000000000600052602260045260246000fd5b7f4e487b7100000000000000000000000000000000000000000000000000000000600052604160045260246000fd5b6000601f19601f8301169050919050565b7f4552433732313a207472616e7366657220746f206e6f6e20455243373231526560008201527f63656976657220696d706c656d656e7465720000000000000000000000000000602082015250565b7f4552433732313a20746f6b656e20616c7265616479206d696e74656400000000600082015250565b7f54484952445f574f524400000000000000000000000000000000000000000000600082015250565b7f4552433732313a207472616e7366657220746f20746865207a65726f2061646460008201527f7265737300000000000000000000000000000000000000000000000000000000602082015250565b7f4552433732313a20617070726f766520746f2063616c6c657200000000000000600082015250565b7f222c20226465736372697074696f6e223a20224120686967686c79206163636c60008201527f61696d656420636f6c6c656374696f6e206f6620737175617265732e222c202260208201527f696d616765223a2022646174613a696d6167652f7376672b786d6c3b6261736560408201527f36342c0000000000000000000000000000000000000000000000000000000000606082015250565b7f5345434f4e445f574f5244000000000000000000000000000000000000000000600082015250565b7f4552433732313a206f70657261746f7220717565727920666f72206e6f6e657860008201527f697374656e7420746f6b656e0000000000000000000000000000000000000000602082015250565b7f3c2f746578743e3c2f7376673e00000000000000000000000000000000000000600082015250565b7f4552433732313a20617070726f76652063616c6c6572206973206e6f74206f7760008201527f6e6572206e6f7220617070726f76656420666f7220616c6c0000000000000000602082015250565b7f4552433732313a2062616c616e636520717565727920666f7220746865207a6560008201527f726f206164647265737300000000000000000000000000000000000000000000602082015250565b7f4552433732313a206f776e657220717565727920666f72206e6f6e657869737460008201527f656e7420746f6b656e0000000000000000000000000000000000000000000000602082015250565b7f45524337323155524953746f726167653a2055524920736574206f66206e6f6e60008201527f6578697374656e7420746f6b656e000000000000000000000000000000000000602082015250565b7f227d000000000000000000000000000000000000000000000000000000000000600082015250565b7f4552433732313a206d696e7420746f20746865207a65726f2061646472657373600082015250565b7f45524337323155524953746f726167653a2055524920717565727920666f722060008201527f6e6f6e6578697374656e7420746f6b656e000000000000000000000000000000602082015250565b7f4552433732313a20617070726f76656420717565727920666f72206e6f6e657860008201527f697374656e7420746f6b656e0000000000000000000000000000000000000000602082015250565b7f4552433732313a207472616e73666572206f6620746f6b656e2074686174206960008201527f73206e6f74206f776e0000000000000000000000000000000000000000000000602082015250565b7f4552433732314d657461646174613a2055524920717565727920666f72206e6f60008201527f6e6578697374656e7420746f6b656e0000000000000000000000000000000000602082015250565b7f7b226e616d65223a202200000000000000000000000000000000000000000000600082015250565b7f4552433732313a20617070726f76616c20746f2063757272656e74206f776e6560008201527f7200000000000000000000000000000000000000000000000000000000000000602082015250565b7f46495253545f574f524400000000000000000000000000000000000000000000600082015250565b7f646174613a6170706c69636174696f6e2f6a736f6e3b6261736536342c000000600082015250565b7f4552433732313a207472616e736665722063616c6c6572206973206e6f74206f60008201527f776e6572206e6f7220617070726f766564000000000000000000000000000000602082015250565b6138c781613026565b81146138d257600080fd5b50565b6138de81613038565b81146138e957600080fd5b50565b6138f581613044565b811461390057600080fd5b50565b61390c81613090565b811461391757600080fd5b5056fe416e204e465420772f20494420257320686173206265656e206d696e74656420746f2025734142434445464748494a4b4c4d4e4f505152535455565758595a6162636465666768696a6b6c6d6e6f707172737475767778797a303132333435363738392b2fa2646970667358221220d3c04ac867fd95bd3a59eb9371614af22e7ecc2495953dd965b21d4cb0a706d664736f6c634300080400333c73766720786d6c6e733d27687474703a2f2f7777772e77332e6f72672f323030302f73766727207072657365727665417370656374526174696f3d27784d696e594d696e206d656574272076696577426f783d273020302033353020333530273e3c7374796c653e2e62617365207b2066696c6c3a2077686974653b20666f6e742d66616d696c793a2073657269663b20666f6e742d73697a653a20323470783b207d3c2f7374796c653e3c726563742077696474683d273130302527206865696768743d2731303025272066696c6c3d27626c61636b27202f3e3c7465787420783d273530252720793d273530252720636c6173733d27626173652720646f6d696e616e742d626173656c696e653d276d6964646c652720746578742d616e63686f723d276d6964646c65273e",
  "linkReferences": {},
  "deployedLinkReferences": {}
}