{
  "_format": "hh-sol-artifact-1",
  "contractName": "EpicNFT",
  "sourceName": "contracts/EpicNFT.sol",
  "abi": [
    {
      "inputs": [],
      "stateMutability": "nonpayable",
      "type": "constructor"
    },
    {
      "anonymous": false,
      "inputs": [
        {
          "indexed": true,
          "internalType": "address",
          "name": "owner",
          "type": "address"
        },
        {
          "indexed": true,
          "internalType": "address",
          "name": "approved",
          "type": "address"
        },
        {
          "indexed": true,
          "internalType": "uint256",
          "name": "tokenId",
          "type": "uint256"
        }
      ],
      "name": "Approval",
      "type": "event"
    },
    {
      "anonymous": false,
      "inputs": [
        {
          "indexed": true,
          "internalType": "address",
          "name": "owner",
          "type": "address"
        },
        {
          "indexed": true,
          "internalType": "address",
          "name": "operator",
          "type": "address"
        },
        {
          "indexed": false,
          "internalType": "bool",
          "name": "approved",
          "type": "bool"
        }
      ],
      "name": "ApprovalForAll",
      "type": "event"
    },
    {
      "anonymous": false,
      "inputs": [
        {
          "indexed": true,
          "internalType": "address",
          "name": "from",
          "type": "address"
        },
        {
          "indexed": true,
          "internalType": "address",
          "name": "to",
          "type": "address"
        },
        {
          "indexed": true,
          "internalType": "uint256",
          "name": "tokenId",
          "type": "uint256"
        }
      ],
      "name": "Transfer",
      "type": "event"
    },
    {
      "inputs": [
        {
          "internalType": "address",
          "name": "to",
          "type": "address"
        },
        {
          "internalType": "uint256",
          "name": "tokenId",
          "type": "uint256"
        }
      ],
      "name": "approve",
      "outputs": [],
      "stateMutability": "nonpayable",
      "type": "function"
    },
    {
      "inputs": [
        {
          "internalType": "address",
          "name": "owner",
          "type": "address"
        }
      ],
      "name": "balanceOf",
      "outputs": [
        {
          "internalType": "uint256",
          "name": "",
          "type": "uint256"
        }
      ],
      "stateMutability": "view",
      "type": "function"
    },
    {
      "inputs": [
        {
          "internalType": "uint256",
          "name": "tokenId",
          "type": "uint256"
        }
      ],
      "name": "getApproved",
      "outputs": [
        {
          "internalType": "address",
          "name": "",
          "type": "address"
        }
      ],
      "stateMutability": "view",
      "type": "function"
    },
    {
      "inputs": [
        {
          "internalType": "address",
          "name": "owner",
          "type": "address"
        },
        {
          "internalType": "address",
          "name": "operator",
          "type": "address"
        }
      ],
      "name": "isApprovedForAll",
      "outputs": [
        {
          "internalType": "bool",
          "name": "",
          "type": "bool"
        }
      ],
      "stateMutability": "view",
      "type": "function"
    },
    {
      "inputs": [],
      "name": "makeEpicNFT",
      "outputs": [],
      "stateMutability": "nonpayable",
      "type": "function"
    },
    {
      "inputs": [],
      "name": "name",
      "outputs": [
        {
          "internalType": "string",
          "name": "",
          "type": "string"
        }
      ],
      "stateMutability": "view",
      "type": "function"
    },
    {
      "inputs": [
        {
          "internalType": "uint256",
          "name": "tokenId",
          "type": "uint256"
        }
      ],
      "name": "ownerOf",
      "outputs": [
        {
          "internalType": "address",
          "name": "",
          "type": "address"
        }
      ],
      "stateMutability": "view",
      "type": "function"
    },
    {
      "inputs": [
        {
          "internalType": "uint256",
          "name": "tokenId",
          "type": "uint256"
        }
      ],
      "name": "pickRandomFirstWord",
      "outputs": [
        {
          "internalType": "string",
          "name": "",
          "type": "string"
        }
      ],
      "stateMutability": "view",
      "type": "function"
    },
    {
      "inputs": [
        {
          "internalType": "uint256",
          "name": "tokenId",
          "type": "uint256"
        }
      ],
      "name": "pickRandomSecondWord",
      "outputs": [
        {
          "internalType": "string",
          "name": "",
          "type": "string"
        }
      ],
      "stateMutability": "view",
      "type": "function"
    },
    {
      "inputs": [
        {
          "internalType": "uint256",
          "name": "tokenId",
          "type": "uint256"
        }
      ],
      "name": "pickRandomThirdWord",
      "outputs": [
        {
          "internalType": "string",
          "name": "",
          "type": "string"
        }
      ],
      "stateMutability": "view",
      "type": "function"
    },
    {
      "inputs": [
        {
          "internalType": "address",
          "name": "from",
          "type": "address"
        },
        {
          "internalType": "address",
          "name": "to",
          "type": "address"
        },
        {
          "internalType": "uint256",
          "name": "tokenId",
          "type": "uint256"
        }
      ],
      "name": "safeTransferFrom",
      "outputs": [],
      "stateMutability": "nonpayable",
      "type": "function"
    },
    {
      "inputs": [
        {
          "internalType": "address",
          "name": "from",
          "type": "address"
        },
        {
          "internalType": "address",
          "name": "to",
          "type": "address"
        },
        {
          "internalType": "uint256",
          "name": "tokenId",
          "type": "uint256"
        },
        {
          "internalType": "bytes",
          "name": "_data",
          "type": "bytes"
        }
      ],
      "name": "safeTransferFrom",
      "outputs": [],
      "stateMutability": "nonpayable",
      "type": "function"
    },
    {
      "inputs": [
        {
          "internalType": "address",
          "name": "operator",
          "type": "address"
        },
        {
          "internalType": "bool",
          "name": "approved",
          "type": "bool"
        }
      ],
      "name": "setApprovalForAll",
      "outputs": [],
      "stateMutability": "nonpayable",
      "type": "function"
    },
    {
      "inputs": [
        {
          "internalType": "bytes4",
          "name": "interfaceId",
          "type": "bytes4"
        }
      ],
      "name": "supportsInterface",
      "outputs": [
        {
          "internalType": "bool",
          "name": "",
          "type": "bool"
        }
      ],
      "stateMutability": "view",
      "type": "function"
    },
    {
      "inputs": [],
      "name": "symbol",
      "outputs": [
        {
          "internalType": "string",
          "name": "",
          "type": "string"
        }
      ],
      "stateMutability": "view",
      "type": "function"
    },
    {
      "inputs": [
        {
          "internalType": "uint256",
          "name": "tokenId",
          "type": "uint256"
        }
      ],
      "name": "tokenURI",
      "outputs": [
        {
          "internalType": "string",
          "name": "",
          "type": "string"
        }
      ],
      "stateMutability": "view",
      "type": "function"
    },
    {
      "inputs": [
        {
          "internalType": "address",
          "name": "from",
          "type": "address"
        },
        {
          "internalType": "address",
          "name": "to",
          "type": "address"
        },
        {
          "internalType": "uint256",
          "name": "tokenId",
          "type": "uint256"
        }
      ],
      "name": "transferFrom",
      "outputs": [],
      "stateMutability": "nonpayable",
      "type": "function"
    }
  ],
  "bytecode": "0x60806040526040518060c001604052806040518060400160405280600781526020017f417765736f6d650000000000000000000000000000000000000000000000000081525081526020016040518060400160405280600a81526020017f54657272796679696e670000000000000000000000000000000000000000000081525081526020016040518060400160405280600481526020017f457069630000000000000000000000000000000000000000000000000000000081525081526020016040518060400160405280600981526020017f48696c6172696f7573000000000000000000000000000000000000000000000081525081526020016040518060400160405280600481526020017f57696c640000000000000000000000000000000000000000000000000000000081525081526020016040518060400160405280600781526020017f416d617a696e67000000000000000000000000000000000000000000000000008152508152506008906006620001819291906200067e565b506040518060c001604052806040518060400160405280600981526020017f48616d627572676572000000000000000000000000000000000000000000000081525081526020016040518060400160405280600c81526020017f436865657365627572676572000000000000000000000000000000000000000081525081526020016040518060400160405280600581526020017f506173746100000000000000000000000000000000000000000000000000000081525081526020016040518060400160405280600881526020017f4d616361726f6e6900000000000000000000000000000000000000000000000081525081526020016040518060400160405280600581526020017f50697a7a6100000000000000000000000000000000000000000000000000000081525081526020016040518060400160405280600581526020017f43686970730000000000000000000000000000000000000000000000000000008152508152506009906006620002ff9291906200067e565b506040518060c001604052806040518060400160405280600481526020017f476f61740000000000000000000000000000000000000000000000000000000081525081526020016040518060400160405280600381526020017f436174000000000000000000000000000000000000000000000000000000000081525081526020016040518060400160405280600781526020017f50656e6775696e0000000000000000000000000000000000000000000000000081525081526020016040518060400160405280600881526020017f546f72746f69736500000000000000000000000000000000000000000000000081525081526020016040518060400160405280600781526020017f476972616666650000000000000000000000000000000000000000000000000081525081526020016040518060400160405280600881526020017f456c657068616e74000000000000000000000000000000000000000000000000815250815250600a9060066200047d9291906200067e565b5060405180610160016040528061012f81526020016200428c61012f9139600b9080519060200190620004b2929190620006e5565b50348015620004c057600080fd5b506040518060400160405280600981526020017f5371756172654e465400000000000000000000000000000000000000000000008152506040518060400160405280600381526020017f5351520000000000000000000000000000000000000000000000000000000000815250816000908051906020019062000545929190620006e5565b5080600190805190602001906200055e929190620006e5565b505050620005ac6040518060400160405280601e81526020017f54686973206973206d79204e465420636f6e74726163742e20576f6168210000815250620005b260201b620011f01760201c565b62000930565b6200065281604051602401620005c9919062000844565b6040516020818303038152906040527f41304fac000000000000000000000000000000000000000000000000000000007bffffffffffffffffffffffffffffffffffffffffffffffffffffffff19166020820180517bffffffffffffffffffffffffffffffffffffffffffffffffffffffff83818316178352505050506200065560201b60201c565b50565b60008151905060006a636f6e736f6c652e6c6f679050602083016000808483855afa5050505050565b828054828255906000526020600020908101928215620006d2579160200282015b82811115620006d1578251829080519060200190620006c0929190620006e5565b50916020019190600101906200069f565b5b509050620006e1919062000776565b5090565b828054620006f390620008ba565b90600052602060002090601f01602090048101928262000717576000855562000763565b82601f106200073257805160ff191683800117855562000763565b8280016001018555821562000763579182015b828111156200076257825182559160200191906001019062000745565b5b5090506200077291906200079e565b5090565b5b808211156200079a5760008181620007909190620007bd565b5060010162000777565b5090565b5b80821115620007b95760008160009055506001016200079f565b5090565b508054620007cb90620008ba565b6000825580601f10620007df575062000800565b601f016020900490600052602060002090810190620007ff91906200079e565b5b50565b6000620008108262000868565b6200081c818562000873565b93506200082e81856020860162000884565b62000839816200091f565b840191505092915050565b6000602082019050818103600083015262000860818462000803565b905092915050565b600081519050919050565b600082825260208201905092915050565b60005b83811015620008a457808201518184015260208101905062000887565b83811115620008b4576000848401525b50505050565b60006002820490506001821680620008d357607f821691505b60208210811415620008ea57620008e9620008f0565b5b50919050565b7f4e487b7100000000000000000000000000000000000000000000000000000000600052602260045260246000fd5b6000601f19601f8301169050919050565b61394c80620009406000396000f3fe608060405234801561001057600080fd5b506004361061010b5760003560e01c80636352211e116100a2578063b187301f11610071578063b187301f146102b6578063b88d4fde146102e6578063c575757a14610302578063c87b56dd14610332578063e985e9c5146103625761010b565b80636352211e1461021c57806370a082311461024c57806395d89b411461027c578063a22cb4651461029a5761010b565b806323b872dd116100de57806323b872dd146101aa5780632de38d68146101c657806342842e0e146101f657806362b41f49146102125761010b565b806301ffc9a71461011057806306fdde0314610140578063081812fc1461015e578063095ea7b31461018e575b600080fd5b61012a60048036038101906101259190612483565b610392565b6040516101379190612b64565b60405180910390f35b610148610474565b6040516101559190612b7f565b60405180910390f35b610178600480360381019061017391906124d5565b610506565b6040516101859190612afd565b60405180910390f35b6101a860048036038101906101a39190612447565b61058b565b005b6101c460048036038101906101bf9190612341565b6106a3565b005b6101e060048036038101906101db91906124d5565b610703565b6040516101ed9190612b7f565b60405180910390f35b610210600480360381019061020b9190612341565b610821565b005b61021a610841565b005b610236600480360381019061023191906124d5565b6109ef565b6040516102439190612afd565b60405180910390f35b610266600480360381019061026191906122dc565b610aa1565b6040516102739190612ddf565b60405180910390f35b610284610b59565b6040516102919190612b7f565b60405180910390f35b6102b460048036038101906102af919061240b565b610beb565b005b6102d060048036038101906102cb91906124d5565b610d6c565b6040516102dd9190612b7f565b60405180910390f35b61030060048036038101906102fb9190612390565b610e8a565b005b61031c600480360381019061031791906124d5565b610eec565b6040516103299190612b7f565b60405180910390f35b61034c600480360381019061034791906124d5565b61100a565b6040516103599190612b7f565b60405180910390f35b61037c60048036038101906103779190612305565b61115c565b6040516103899190612b64565b60405180910390f35b60007f80ac58cd000000000000000000000000000000000000000000000000000000007bffffffffffffffffffffffffffffffffffffffffffffffffffffffff1916827bffffffffffffffffffffffffffffffffffffffffffffffffffffffff1916148061045d57507f5b5e139f000000000000000000000000000000000000000000000000000000007bffffffffffffffffffffffffffffffffffffffffffffffffffffffff1916827bffffffffffffffffffffffffffffffffffffffffffffffffffffffff1916145b8061046d575061046c82611289565b5b9050919050565b60606000805461048390613073565b80601f01602080910402602001604051908101604052809291908181526020018280546104af90613073565b80156104fc5780601f106104d1576101008083540402835291602001916104fc565b820191906000526020600020905b8154815290600101906020018083116104df57829003601f168201915b5050505050905090565b6000610511826112f3565b610550576040517f08c379a000000000000000000000000000000000000000000000000000000000815260040161054790612d3f565b60405180910390fd5b6004600083815260200190815260200160002060009054906101000a900473ffffffffffffffffffffffffffffffffffffffff169050919050565b6000610596826109ef565b90508073ffffffffffffffffffffffffffffffffffffffff168373ffffffffffffffffffffffffffffffffffffffff161415610607576040517f08c379a00000000000000000000000000000000000000000000000000000000081526004016105fe90612d9f565b60405180910390fd5b8073ffffffffffffffffffffffffffffffffffffffff1661062661135f565b73ffffffffffffffffffffffffffffffffffffffff16148061065557506106548161064f61135f565b61115c565b5b610694576040517f08c379a000000000000000000000000000000000000000000000000000000000815260040161068b90612c7f565b60405180910390fd5b61069e8383611367565b505050565b6106b46106ae61135f565b82611420565b6106f3576040517f08c379a00000000000000000000000000000000000000000000000000000000081526004016106ea90612dbf565b60405180910390fd5b6106fe8383836114fe565b505050565b606060006107376107138461175a565b6040516020016107239190612ab9565b604051602081830303815290604052611907565b90506008805490508161074a919061311f565b905060088181548110610786577f4e487b7100000000000000000000000000000000000000000000000000000000600052603260045260246000fd5b90600052602060002001805461079b90613073565b80601f01602080910402602001604051908101604052809291908181526020018280546107c790613073565b80156108145780601f106107e957610100808354040283529160200191610814565b820191906000526020600020905b8154815290600101906020018083116107f757829003601f168201915b5050505050915050919050565b61083c83838360405180602001604052806000815250610e8a565b505050565b600061084d600761193a565b9050600061085a82610703565b9050600061086783610d6c565b9050600061087484610eec565b9050600083838360405160200161088d939291906129d0565b60405160208183030381529060405290506000600b826040516020016108b4929190612a01565b604051602081830303815290604052905060006108f9836108d484611948565b6040516020016108e5929190612a74565b604051602081830303815290604052611948565b905060008160405160200161090e9190612adb565b604051602081830303815290604052905061095d6040518060400160405280601581526020017f0a2d2d2d2d2d2d2d2d2d2d2d2d2d2d2d2d2d2d2d2d00000000000000000000008152506111f0565b610966816111f0565b6109a46040518060400160405280601581526020017f2d2d2d2d2d2d2d2d2d2d2d2d2d2d2d2d2d2d2d2d0a00000000000000000000008152506111f0565b6109ae3389611b06565b6109b88882611b24565b6109db6040518060600160405280602581526020016138b2602591398933611b98565b6109e56007611c37565b5050505050505050565b6000806002600084815260200190815260200160002060009054906101000a900473ffffffffffffffffffffffffffffffffffffffff169050600073ffffffffffffffffffffffffffffffffffffffff168173ffffffffffffffffffffffffffffffffffffffff161415610a98576040517f08c379a0000000000000000000000000000000000000000000000000000000008152600401610a8f90612cbf565b60405180910390fd5b80915050919050565b60008073ffffffffffffffffffffffffffffffffffffffff168273ffffffffffffffffffffffffffffffffffffffff161415610b12576040517f08c379a0000000000000000000000000000000000000000000000000000000008152600401610b0990612c9f565b60405180910390fd5b600360008373ffffffffffffffffffffffffffffffffffffffff1673ffffffffffffffffffffffffffffffffffffffff168152602001908152602001600020549050919050565b606060018054610b6890613073565b80601f0160208091040260200160405190810160405280929190818152602001828054610b9490613073565b8015610be15780601f10610bb657610100808354040283529160200191610be1565b820191906000526020600020905b815481529060010190602001808311610bc457829003601f168201915b5050505050905090565b610bf361135f565b73ffffffffffffffffffffffffffffffffffffffff168273ffffffffffffffffffffffffffffffffffffffff161415610c61576040517f08c379a0000000000000000000000000000000000000000000000000000000008152600401610c5890612c3f565b60405180910390fd5b8060056000610c6e61135f565b73ffffffffffffffffffffffffffffffffffffffff1673ffffffffffffffffffffffffffffffffffffffff16815260200190815260200160002060008473ffffffffffffffffffffffffffffffffffffffff1673ffffffffffffffffffffffffffffffffffffffff16815260200190815260200160002060006101000a81548160ff0219169083151502179055508173ffffffffffffffffffffffffffffffffffffffff16610d1b61135f565b73ffffffffffffffffffffffffffffffffffffffff167f17307eab39ab6107e8899845ad3d59bd9653f200f220920489ca2b5937696c3183604051610d609190612b64565b60405180910390a35050565b60606000610da0610d7c8461175a565b604051602001610d8c9190612a52565b604051602081830303815290604052611907565b905060098054905081610db3919061311f565b905060098181548110610def577f4e487b7100000000000000000000000000000000000000000000000000000000600052603260045260246000fd5b906000526020600020018054610e0490613073565b80601f0160208091040260200160405190810160405280929190818152602001828054610e3090613073565b8015610e7d5780601f10610e5257610100808354040283529160200191610e7d565b820191906000526020600020905b815481529060010190602001808311610e6057829003601f168201915b5050505050915050919050565b610e9b610e9561135f565b83611420565b610eda576040517f08c379a0000000000000000000000000000000000000000000000000000000008152600401610ed190612dbf565b60405180910390fd5b610ee684848484611c4d565b50505050565b60606000610f20610efc8461175a565b604051602001610f0c9190612a30565b604051602081830303815290604052611907565b9050600a8054905081610f33919061311f565b9050600a8181548110610f6f577f4e487b7100000000000000000000000000000000000000000000000000000000600052603260045260246000fd5b906000526020600020018054610f8490613073565b80601f0160208091040260200160405190810160405280929190818152602001828054610fb090613073565b8015610ffd5780601f10610fd257610100808354040283529160200191610ffd565b820191906000526020600020905b815481529060010190602001808311610fe057829003601f168201915b5050505050915050919050565b6060611015826112f3565b611054576040517f08c379a000000000000000000000000000000000000000000000000000000000815260040161104b90612d1f565b60405180910390fd5b600060066000848152602001908152602001600020805461107490613073565b80601f01602080910402602001604051908101604052809291908181526020018280546110a090613073565b80156110ed5780601f106110c2576101008083540402835291602001916110ed565b820191906000526020600020905b8154815290600101906020018083116110d057829003601f168201915b5050505050905060006110fe611ca9565b9050600081511415611114578192505050611157565b6000825111156111495780826040516020016111319291906129ac565b60405160208183030381529060405292505050611157565b61115284611cc0565b925050505b919050565b6000600560008473ffffffffffffffffffffffffffffffffffffffff1673ffffffffffffffffffffffffffffffffffffffff16815260200190815260200160002060008373ffffffffffffffffffffffffffffffffffffffff1673ffffffffffffffffffffffffffffffffffffffff16815260200190815260200160002060009054906101000a900460ff16905092915050565b611286816040516024016112049190612b7f565b6040516020818303038152906040527f41304fac000000000000000000000000000000000000000000000000000000007bffffffffffffffffffffffffffffffffffffffffffffffffffffffff19166020820180517bffffffffffffffffffffffffffffffffffffffffffffffffffffffff8381831617835250505050611d67565b50565b60007f01ffc9a7000000000000000000000000000000000000000000000000000000007bffffffffffffffffffffffffffffffffffffffffffffffffffffffff1916827bffffffffffffffffffffffffffffffffffffffffffffffffffffffff1916149050919050565b60008073ffffffffffffffffffffffffffffffffffffffff166002600084815260200190815260200160002060009054906101000a900473ffffffffffffffffffffffffffffffffffffffff1673ffffffffffffffffffffffffffffffffffffffff1614159050919050565b600033905090565b816004600083815260200190815260200160002060006101000a81548173ffffffffffffffffffffffffffffffffffffffff021916908373ffffffffffffffffffffffffffffffffffffffff160217905550808273ffffffffffffffffffffffffffffffffffffffff166113da836109ef565b73ffffffffffffffffffffffffffffffffffffffff167f8c5be1e5ebec7d5bd14f71427d1e84f3dd0314c0f7b2291e5b200ac8c7c3b92560405160405180910390a45050565b600061142b826112f3565b61146a576040517f08c379a000000000000000000000000000000000000000000000000000000000815260040161146190612c5f565b60405180910390fd5b6000611475836109ef565b90508073ffffffffffffffffffffffffffffffffffffffff168473ffffffffffffffffffffffffffffffffffffffff1614806114e457508373ffffffffffffffffffffffffffffffffffffffff166114cc84610506565b73ffffffffffffffffffffffffffffffffffffffff16145b806114f557506114f4818561115c565b5b91505092915050565b8273ffffffffffffffffffffffffffffffffffffffff1661151e826109ef565b73ffffffffffffffffffffffffffffffffffffffff1614611574576040517f08c379a000000000000000000000000000000000000000000000000000000000815260040161156b90612d5f565b60405180910390fd5b600073ffffffffffffffffffffffffffffffffffffffff168273ffffffffffffffffffffffffffffffffffffffff1614156115e4576040517f08c379a00000000000000000000000000000000000000000000000000000000081526004016115db90612c1f565b60405180910390fd5b6115ef838383611d90565b6115fa600082611367565b6001600360008573ffffffffffffffffffffffffffffffffffffffff1673ffffffffffffffffffffffffffffffffffffffff168152602001908152602001600020600082825461164a9190612f89565b925050819055506001600360008473ffffffffffffffffffffffffffffffffffffffff1673ffffffffffffffffffffffffffffffffffffffff16815260200190815260200160002060008282546116a19190612ea8565b92505081905550816002600083815260200190815260200160002060006101000a81548173ffffffffffffffffffffffffffffffffffffffff021916908373ffffffffffffffffffffffffffffffffffffffff160217905550808273ffffffffffffffffffffffffffffffffffffffff168473ffffffffffffffffffffffffffffffffffffffff167fddf252ad1be2c89b69c2b068fc378daa952ba7f163c4a11628f55a4df523b3ef60405160405180910390a4505050565b606060008214156117a2576040518060400160405280600181526020017f30000000000000000000000000000000000000000000000000000000000000008152509050611902565b600082905060005b600082146117d45780806117bd906130d6565b915050600a826117cd9190612efe565b91506117aa565b60008167ffffffffffffffff811115611816577f4e487b7100000000000000000000000000000000000000000000000000000000600052604160045260246000fd5b6040519080825280601f01601f1916602001820160405280156118485781602001600182028036833780820191505090505b5090505b600085146118fb576001826118619190612f89565b9150600a85611870919061311f565b603061187c9190612ea8565b60f81b8183815181106118b8577f4e487b7100000000000000000000000000000000000000000000000000000000600052603260045260246000fd5b60200101907effffffffffffffffffffffffffffffffffffffffffffffffffffffffffffff1916908160001a905350600a856118f49190612efe565b945061184c565b8093505050505b919050565b60008160405160200161191a9190612995565b6040516020818303038152906040528051906020012060001c9050919050565b600081600001549050919050565b606060008251905060008114156119715760405180602001604052806000815250915050611b01565b600060036002836119829190612ea8565b61198c9190612efe565b60046119989190612f2f565b905060006020826119a99190612ea8565b67ffffffffffffffff8111156119e8577f4e487b7100000000000000000000000000000000000000000000000000000000600052604160045260246000fd5b6040519080825280601f01601f191660200182016040528015611a1a5781602001600182028036833780820191505090505b50905060006040518060600160405280604081526020016138d7604091399050600181016020830160005b86811015611abe5760038101905062ffffff818a015116603f8160121c168401518060081b905060ff603f83600c1c1686015116810190508060081b905060ff603f8360061c1686015116810190508060081b905060ff603f831686015116810190508060e01b90508084526004840193505050611a45565b506003860660018114611ad85760028114611ae857611af3565b613d3d60f01b6002830352611af3565b603d60f81b60018303525b508484525050819450505050505b919050565b611b20828260405180602001604052806000815250611d95565b5050565b611b2d826112f3565b611b6c576040517f08c379a0000000000000000000000000000000000000000000000000000000008152600401611b6390612cdf565b60405180910390fd5b80600660008481526020019081526020016000209080519060200190611b93929190612168565b505050565b611c32838383604051602401611bb093929190612ba1565b6040516020818303038152906040527fe3849f79000000000000000000000000000000000000000000000000000000007bffffffffffffffffffffffffffffffffffffffffffffffffffffffff19166020820180517bffffffffffffffffffffffffffffffffffffffffffffffffffffffff8381831617835250505050611d67565b505050565b6001816000016000828254019250508190555050565b611c588484846114fe565b611c6484848484611df0565b611ca3576040517f08c379a0000000000000000000000000000000000000000000000000000000008152600401611c9a90612bdf565b60405180910390fd5b50505050565b606060405180602001604052806000815250905090565b6060611ccb826112f3565b611d0a576040517f08c379a0000000000000000000000000000000000000000000000000000000008152600401611d0190612d7f565b60405180910390fd5b6000611d14611ca9565b90506000815111611d345760405180602001604052806000815250611d5f565b80611d3e8461175a565b604051602001611d4f9291906129ac565b6040516020818303038152906040525b915050919050565b60008151905060006a636f6e736f6c652e6c6f679050602083016000808483855afa5050505050565b505050565b611d9f8383611f87565b611dac6000848484611df0565b611deb576040517f08c379a0000000000000000000000000000000000000000000000000000000008152600401611de290612bdf565b60405180910390fd5b505050565b6000611e118473ffffffffffffffffffffffffffffffffffffffff16612155565b15611f7a578373ffffffffffffffffffffffffffffffffffffffff1663150b7a02611e3a61135f565b8786866040518563ffffffff1660e01b8152600401611e5c9493929190612b18565b602060405180830381600087803b158015611e7657600080fd5b505af1925050508015611ea757506040513d601f19601f82011682018060405250810190611ea491906124ac565b60015b611f2a573d8060008114611ed7576040519150601f19603f3d011682016040523d82523d6000602084013e611edc565b606091505b50600081511415611f22576040517f08c379a0000000000000000000000000000000000000000000000000000000008152600401611f1990612bdf565b60405180910390fd5b805181602001fd5b63150b7a0260e01b7bffffffffffffffffffffffffffffffffffffffffffffffffffffffff1916817bffffffffffffffffffffffffffffffffffffffffffffffffffffffff191614915050611f7f565b600190505b949350505050565b600073ffffffffffffffffffffffffffffffffffffffff168273ffffffffffffffffffffffffffffffffffffffff161415611ff7576040517f08c379a0000000000000000000000000000000000000000000000000000000008152600401611fee90612cff565b60405180910390fd5b612000816112f3565b15612040576040517f08c379a000000000000000000000000000000000000000000000000000000000815260040161203790612bff565b60405180910390fd5b61204c60008383611d90565b6001600360008473ffffffffffffffffffffffffffffffffffffffff1673ffffffffffffffffffffffffffffffffffffffff168152602001908152602001600020600082825461209c9190612ea8565b92505081905550816002600083815260200190815260200160002060006101000a81548173ffffffffffffffffffffffffffffffffffffffff021916908373ffffffffffffffffffffffffffffffffffffffff160217905550808273ffffffffffffffffffffffffffffffffffffffff16600073ffffffffffffffffffffffffffffffffffffffff167fddf252ad1be2c89b69c2b068fc378daa952ba7f163c4a11628f55a4df523b3ef60405160405180910390a45050565b600080823b905060008111915050919050565b82805461217490613073565b90600052602060002090601f01602090048101928261219657600085556121dd565b82601f106121af57805160ff19168380011785556121dd565b828001600101855582156121dd579182015b828111156121dc5782518255916020019190600101906121c1565b5b5090506121ea91906121ee565b5090565b5b808211156122075760008160009055506001016121ef565b5090565b600061221e61221984612e1f565b612dfa565b90508281526020810184848401111561223657600080fd5b612241848285613031565b509392505050565b60008135905061225881613855565b92915050565b60008135905061226d8161386c565b92915050565b60008135905061228281613883565b92915050565b60008151905061229781613883565b92915050565b600082601f8301126122ae57600080fd5b81356122be84826020860161220b565b91505092915050565b6000813590506122d68161389a565b92915050565b6000602082840312156122ee57600080fd5b60006122fc84828501612249565b91505092915050565b6000806040838503121561231857600080fd5b600061232685828601612249565b925050602061233785828601612249565b9150509250929050565b60008060006060848603121561235657600080fd5b600061236486828701612249565b935050602061237586828701612249565b9250506040612386868287016122c7565b9150509250925092565b600080600080608085870312156123a657600080fd5b60006123b487828801612249565b94505060206123c587828801612249565b93505060406123d6878288016122c7565b925050606085013567ffffffffffffffff8111156123f357600080fd5b6123ff8782880161229d565b91505092959194509250565b6000806040838503121561241e57600080fd5b600061242c85828601612249565b925050602061243d8582860161225e565b9150509250929050565b6000806040838503121561245a57600080fd5b600061246885828601612249565b9250506020612479858286016122c7565b9150509250929050565b60006020828403121561249557600080fd5b60006124a384828501612273565b91505092915050565b6000602082840312156124be57600080fd5b60006124cc84828501612288565b91505092915050565b6000602082840312156124e757600080fd5b60006124f5848285016122c7565b91505092915050565b61250781612fbd565b82525050565b61251681612fcf565b82525050565b600061252782612e65565b6125318185612e7b565b9350612541818560208601613040565b61254a8161320c565b840191505092915050565b600061256082612e70565b61256a8185612e8c565b935061257a818560208601613040565b6125838161320c565b840191505092915050565b600061259982612e70565b6125a38185612e9d565b93506125b3818560208601613040565b80840191505092915050565b600081546125cc81613073565b6125d68186612e9d565b945060018216600081146125f1576001811461260257612635565b60ff19831686528186019350612635565b61260b85612e50565b60005b8381101561262d5781548189015260018201915060208101905061260e565b838801955050505b50505092915050565b600061264b603283612e8c565b91506126568261321d565b604082019050919050565b600061266e601c83612e8c565b91506126798261326c565b602082019050919050565b6000612691600a83612e9d565b915061269c82613295565b600a82019050919050565b60006126b4602483612e8c565b91506126bf826132be565b604082019050919050565b60006126d7601983612e8c565b91506126e28261330d565b602082019050919050565b60006126fa606383612e9d565b915061270582613336565b606382019050919050565b600061271d600b83612e9d565b9150612728826133d1565b600b82019050919050565b6000612740602c83612e8c565b915061274b826133fa565b604082019050919050565b6000612763600d83612e9d565b915061276e82613449565b600d82019050919050565b6000612786603883612e8c565b915061279182613472565b604082019050919050565b60006127a9602a83612e8c565b91506127b4826134c1565b604082019050919050565b60006127cc602983612e8c565b91506127d782613510565b604082019050919050565b60006127ef602e83612e8c565b91506127fa8261355f565b604082019050919050565b6000612812600283612e9d565b915061281d826135ae565b600282019050919050565b6000612835602083612e8c565b9150612840826135d7565b602082019050919050565b6000612858603183612e8c565b915061286382613600565b604082019050919050565b600061287b602c83612e8c565b91506128868261364f565b604082019050919050565b600061289e602983612e8c565b91506128a98261369e565b604082019050919050565b60006128c1602f83612e8c565b91506128cc826136ed565b604082019050919050565b60006128e4600a83612e9d565b91506128ef8261373c565b600a82019050919050565b6000612907602183612e8c565b915061291282613765565b604082019050919050565b600061292a600a83612e9d565b9150612935826137b4565b600a82019050919050565b600061294d601d83612e9d565b9150612958826137dd565b601d82019050919050565b6000612970603183612e8c565b915061297b82613806565b604082019050919050565b61298f81613027565b82525050565b60006129a1828461258e565b915081905092915050565b60006129b8828561258e565b91506129c4828461258e565b91508190509392505050565b60006129dc828661258e565b91506129e8828561258e565b91506129f4828461258e565b9150819050949350505050565b6000612a0d82856125bf565b9150612a19828461258e565b9150612a2482612756565b91508190509392505050565b6000612a3b82612684565b9150612a47828461258e565b915081905092915050565b6000612a5d82612710565b9150612a69828461258e565b915081905092915050565b6000612a7f826128d7565b9150612a8b828561258e565b9150612a96826126ed565b9150612aa2828461258e565b9150612aad82612805565b91508190509392505050565b6000612ac48261291d565b9150612ad0828461258e565b915081905092915050565b6000612ae682612940565b9150612af2828461258e565b915081905092915050565b6000602082019050612b1260008301846124fe565b92915050565b6000608082019050612b2d60008301876124fe565b612b3a60208301866124fe565b612b476040830185612986565b8181036060830152612b59818461251c565b905095945050505050565b6000602082019050612b79600083018461250d565b92915050565b60006020820190508181036000830152612b998184612555565b905092915050565b60006060820190508181036000830152612bbb8186612555565b9050612bca6020830185612986565b612bd760408301846124fe565b949350505050565b60006020820190508181036000830152612bf88161263e565b9050919050565b60006020820190508181036000830152612c1881612661565b9050919050565b60006020820190508181036000830152612c38816126a7565b9050919050565b60006020820190508181036000830152612c58816126ca565b9050919050565b60006020820190508181036000830152612c7881612733565b9050919050565b60006020820190508181036000830152612c9881612779565b9050919050565b60006020820190508181036000830152612cb88161279c565b9050919050565b60006020820190508181036000830152612cd8816127bf565b9050919050565b60006020820190508181036000830152612cf8816127e2565b9050919050565b60006020820190508181036000830152612d1881612828565b9050919050565b60006020820190508181036000830152612d388161284b565b9050919050565b60006020820190508181036000830152612d588161286e565b9050919050565b60006020820190508181036000830152612d7881612891565b9050919050565b60006020820190508181036000830152612d98816128b4565b9050919050565b60006020820190508181036000830152612db8816128fa565b9050919050565b60006020820190508181036000830152612dd881612963565b9050919050565b6000602082019050612df46000830184612986565b92915050565b6000612e04612e15565b9050612e1082826130a5565b919050565b6000604051905090565b600067ffffffffffffffff821115612e3a57612e396131dd565b5b612e438261320c565b9050602081019050919050565b60008190508160005260206000209050919050565b600081519050919050565b600081519050919050565b600082825260208201905092915050565b600082825260208201905092915050565b600081905092915050565b6000612eb382613027565b9150612ebe83613027565b9250827fffffffffffffffffffffffffffffffffffffffffffffffffffffffffffffffff03821115612ef357612ef2613150565b5b828201905092915050565b6000612f0982613027565b9150612f1483613027565b925082612f2457612f2361317f565b5b828204905092915050565b6000612f3a82613027565b9150612f4583613027565b9250817fffffffffffffffffffffffffffffffffffffffffffffffffffffffffffffffff0483118215151615612f7e57612f7d613150565b5b828202905092915050565b6000612f9482613027565b9150612f9f83613027565b925082821015612fb257612fb1613150565b5b828203905092915050565b6000612fc882613007565b9050919050565b60008115159050919050565b60007fffffffff0000000000000000000000000000000000000000000000000000000082169050919050565b600073ffffffffffffffffffffffffffffffffffffffff82169050919050565b6000819050919050565b82818337600083830152505050565b60005b8381101561305e578082015181840152602081019050613043565b8381111561306d576000848401525b50505050565b6000600282049050600182168061308b57607f821691505b6020821081141561309f5761309e6131ae565b5b50919050565b6130ae8261320c565b810181811067ffffffffffffffff821117156130cd576130cc6131dd565b5b80604052505050565b60006130e182613027565b91507fffffffffffffffffffffffffffffffffffffffffffffffffffffffffffffffff82141561311457613113613150565b5b600182019050919050565b600061312a82613027565b915061313583613027565b9250826131455761314461317f565b5b828206905092915050565b7f4e487b7100000000000000000000000000000000000000000000000000000000600052601160045260246000fd5b7f4e487b7100000000000000000000000000000000000000000000000000000000600052601260045260246000fd5b7f4e487b7100000000000000000000000000000000000000000000000000000000600052602260045260246000fd5b7f4e487b7100000000000000000000000000000000000000000000000000000000600052604160045260246000fd5b6000601f19601f8301169050919050565b7f4552433732313a207472616e7366657220746f206e6f6e20455243373231526560008201527f63656976657220696d706c656d656e7465720000000000000000000000000000602082015250565b7f4552433732313a20746f6b656e20616c7265616479206d696e74656400000000600082015250565b7f54484952445f574f524400000000000000000000000000000000000000000000600082015250565b7f4552433732313a207472616e7366657220746f20746865207a65726f2061646460008201527f7265737300000000000000000000000000000000000000000000000000000000602082015250565b7f4552433732313a20617070726f766520746f2063616c6c657200000000000000600082015250565b7f222c20226465736372697074696f6e223a20224120686967686c79206163636c60008201527f61696d656420636f6c6c656374696f6e206f6620737175617265732e222c202260208201527f696d616765223a2022646174613a696d6167652f7376672b786d6c3b6261736560408201527f36342c0000000000000000000000000000000000000000000000000000000000606082015250565b7f5345434f4e445f574f5244000000000000000000000000000000000000000000600082015250565b7f4552433732313a206f70657261746f7220717565727920666f72206e6f6e657860008201527f697374656e7420746f6b656e0000000000000000000000000000000000000000602082015250565b7f3c2f746578743e3c2f7376673e00000000000000000000000000000000000000600082015250565b7f4552433732313a20617070726f76652063616c6c6572206973206e6f74206f7760008201527f6e6572206e6f7220617070726f76656420666f7220616c6c0000000000000000602082015250565b7f4552433732313a2062616c616e636520717565727920666f7220746865207a6560008201527f726f206164647265737300000000000000000000000000000000000000000000602082015250565b7f4552433732313a206f776e657220717565727920666f72206e6f6e657869737460008201527f656e7420746f6b656e0000000000000000000000000000000000000000000000602082015250565b7f45524337323155524953746f726167653a2055524920736574206f66206e6f6e60008201527f6578697374656e7420746f6b656e000000000000000000000000000000000000602082015250565b7f227d000000000000000000000000000000000000000000000000000000000000600082015250565b7f4552433732313a206d696e7420746f20746865207a65726f2061646472657373600082015250565b7f45524337323155524953746f726167653a2055524920717565727920666f722060008201527f6e6f6e6578697374656e7420746f6b656e000000000000000000000000000000602082015250565b7f4552433732313a20617070726f76656420717565727920666f72206e6f6e657860008201527f697374656e7420746f6b656e0000000000000000000000000000000000000000602082015250565b7f4552433732313a207472616e73666572206f6620746f6b656e2074686174206960008201527f73206e6f74206f776e0000000000000000000000000000000000000000000000602082015250565b7f4552433732314d657461646174613a2055524920717565727920666f72206e6f60008201527f6e6578697374656e7420746f6b656e0000000000000000000000000000000000602082015250565b7f7b226e616d65223a202200000000000000000000000000000000000000000000600082015250565b7f4552433732313a20617070726f76616c20746f2063757272656e74206f776e6560008201527f7200000000000000000000000000000000000000000000000000000000000000602082015250565b7f46495253545f574f524400000000000000000000000000000000000000000000600082015250565b7f646174613a6170706c69636174696f6e2f6a736f6e3b6261736536342c000000600082015250565b7f4552433732313a207472616e736665722063616c6c6572206973206e6f74206f60008201527f776e6572206e6f7220617070726f766564000000000000000000000000000000602082015250565b61385e81612fbd565b811461386957600080fd5b50565b61387581612fcf565b811461388057600080fd5b50565b61388c81612fdb565b811461389757600080fd5b50565b6138a381613027565b81146138ae57600080fd5b5056fe416e204e465420772f20494420257320686173206265656e206d696e74656420746f2025734142434445464748494a4b4c4d4e4f505152535455565758595a6162636465666768696a6b6c6d6e6f707172737475767778797a303132333435363738392b2fa2646970667358221220eb39a3b20268ef98ca7c8eddf071b7bccf868fd77293217d57d117b4af8e198d64736f6c634300080400333c73766720786d6c6e733d27687474703a2f2f7777772e77332e6f72672f323030302f73766727207072657365727665417370656374526174696f3d27784d696e594d696e206d656574272076696577426f783d273020302033353020333530273e3c7374796c653e2e62617365207b2066696c6c3a2077686974653b20666f6e742d66616d696c793a2073657269663b20666f6e742d73697a653a20323470783b207d3c2f7374796c653e3c726563742077696474683d273130302527206865696768743d2731303025272066696c6c3d27626c61636b27202f3e3c7465787420783d273530252720793d273530252720636c6173733d27626173652720646f6d696e616e742d626173656c696e653d276d6964646c652720746578742d616e63686f723d276d6964646c65273e",
  "linkReferences": {},
  "deployedLinkReferences": {}
}